:1000000009C05DC05CC05BC05AC059C058C057C071
:1000100056C055C011241FBECFE9CDBF20E0A0E6D9
:10002000B0E001C01D92A236B207E1F701D06DC069
:100030007894B898BA9AB99ABC9ABB9AC49883E053
:100040003FD0B09B0AC0C29884E690E043D082E0E3
:1000500037D084E690E03ED0F6CFC5E0C19882E08C
:100060002FD088EC90E036D081E02AD082E028D0F2
:1000700088EC90E02FD0C15089F736D0B09B05C0F6
:10008000809161008F5F80936100B09B109261004E
:1000900080916100833078F081E09091600091114F
:1000A00080E08093600020D0B099FECF1092610074
:1000B00084E690E00FD082E390E00CD0DFCFA0CFB9
:1000C00098B321E030E001C0220F8A95EAF7922B25
:1000D00098BB0895019708F40895EFE5F9E031978A
:1000E000F1F700C00000F6CF80916000811106C0DA
:1000F000C19882E0E5DFC49883E0E2CF81E0E0DFF1
:0E010000C29884E0DDDFC3980895F894FFCF25
:00000001FF
