:1000000009C098C097C096C095C094C093C092C0D4
:10001000B8C090C011241FBECFE9CDBF20E0A0E63C
:10002000B0E001C01D92AC36B207E1F700E401BDBB
:10003000789401D0B7C07894B898BA9AB99ABC9A13
:10004000BB9AC49883E077D0B09B0AC0C2988AEF6D
:1000500090E07BD082E06FD08AEF90E076D0F6CF50
:10006000C5E081E068D0C29888EC90E06ED0C1987D
:1000700082E061D088EC90E068D0C15091F76FD0F9
:10008000B09B05C0809166008F5F80936600B09939
:1000900003C065D01092660080916600882349F104
:1000A00069D040916100509162006091630070914D
:1000B00064004C595F4F6F4F7F4F84179507A60719
:1000C000B707B8F080916000811130C0C19882E01C
:1000D00032D081E090916000911180E080936000C7
:1000E00049D08093610090936200A0936300B09325
:1000F0006400809166008932A8F081E090916500EB
:10010000911180E0809365002AD084E014D0C398D8
:10011000B099FECF88EE93E018D010926600C49894
:1001200083E009D082E390E010D0AACF81E003D031
:10013000C298CFCF65CF98B321E030E001C0220F45
:100140008A95EAF7922B98BB0895019708F40895D1
:10015000EFE5F9E03197F1F700C00000F6CF8091AC
:100160006500811103C0C19882E0E5CF81E0E3DF43
:10017000C2980895E7E6F89481919191A191B19187
:100180001895EF93EFB7EF930F93E7E600810D5EBD
:1001900002C000810F4F0193E0F70F91EF91EFBF85
:0801A000EF911895F894FFCFD0
:00000001FF
