:100000000C9461000C9473000C9473000C947300B6
:100010000C9473000C9473000C9473000C94730094
:100020000C9473000C9473000C9473000C94730084
:100030000C9473000C9473000C9473000C94730074
:100040000C948A010C9473000C9473000C9473004C
:100050000C9473000C9473000C9473000C94730054
:100060000C9473000C94730000000000240027001F
:100070002A0000000000250028002B0000000000DE
:1000800023002600290004040404040404040202DA
:100090000202020203030303030301020408102007
:1000A0004080010204081020010204081020000012
:1000B0000008000201000003040700000000000027
:1000C000000011241FBECFEFD8E0DEBFCDBF21E07E
:1000D000A0E0B1E001C01D92A031B207E1F70E949B
:1000E000D4010C9400030C940000833081F028F4B8
:1000F000813099F08230A9F008958730A9F08830D6
:10010000C9F08430B1F4809180008F7D03C080916C
:1001100080008F7780938000089584B58F7784BDA9
:10012000089584B58F7DFBCF8091B0008F77809349
:10013000B00008958091B0008F7DF9CFCF93DF9309
:10014000EEEAF0E08491EAE9F0E0D491E6E8F0E04C
:10015000C491CC23A1F081110E947500EC2FF0E036
:10016000EE0FFF1FE458FF4FA591B491EC91ED23E2
:1001700081E090E009F480E0DF91CF91089580E084
:1001800090E0FACF1F93CF93DF93282F30E0F9014F
:10019000E255FF4F8491F901E656FF4FD491F901E2
:1001A000EA57FF4FC491CC23A9F0162F81110E946A
:1001B0007500EC2FF0E0EE0FFF1FEE58FF4FA591FA
:1001C000B4918FB7F894EC91111108C0D095DE234B
:1001D000DC938FBFDF91CF911F910895DE2BF8CF75
:1001E000CF93DF9390E0FC01E656FF4F24918A57AE
:1001F0009F4FFC0184918823D1F090E0880F991FD4
:10020000FC01E859FF4FA591B491FC01EE58FF4F56
:10021000C591D49161110EC09FB7F8948C91E22FD3
:10022000E0958E238C932881E223E8839FBFDF91A2
:10023000CF9108958FB7F894EC91E22BEC938FBF98
:10024000F6CF3FB7F8948091010190910201A091FF
:100250000301B091040126B5A89B05C02F3F19F0FA
:100260000196A11DB11D3FBFBA2FA92F982F882736
:10027000BC01CD01620F711D811D911D42E0660F11
:10028000771F881F991F4A95D1F708958F929F92E3
:10029000AF92BF92CF92DF92EF92FF924B015C013F
:1002A0000E9421016B017C010E9421016C197D09D2
:1002B0008E099F09683E734081059105A8F321E0EE
:1002C000821A9108A108B10888EEC80E83E0D81EF2
:1002D000E11CF11C81149104A104B10429F7FF90E1
:1002E000EF90DF90CF90BF90AF909F908F90089548
:1002F00080910E01811108C060E081E00E94C2007F
:1003000061E082E00C94C20061E081E00E94C200E2
:1003100060E0F7CF1F920F920FB60F9211242F9328
:100320003F938F939F93AF93BF93809105019091DB
:100330000601A0910701B09108013091000123E06E
:10034000230F2D3758F50196A11DB11D20930001F3
:100350008093050190930601A0930701B0930801D3
:100360008091010190910201A0910301B0910401DB
:100370000196A11DB11D8093010190930201A093EC
:100380000301B0930401BF91AF919F918F913F9171
:100390002F910F900FBE0F901F90189526E8230FF6
:1003A0000296A11DB11DD2CF789484B5826084BD20
:1003B00084B5816084BD85B5826085BD85B5816069
:1003C00085BD80916E00816080936E0010928100E7
:1003D00080918100826080938100809181008160A2
:1003E0008093810080918000816080938000809163
:1003F000B10084608093B1008091B00081608093EF
:10040000B00080917A00846080937A0080917A00B5
:10041000826080937A0080917A00816080937A0074
:1004200080917A00806880937A001092C10060E029
:1004300080E00E94F00061E082E00E94F00061E054
:1004400081E00E94F00061E084E00E94F00061E041
:1004500083E00E94F00060E084E00E94C20061E05E
:1004600083E00E94C2000E949E00892BA9F060E0F8
:1004700082E00E94C2006AEF70E080E090E00E949B
:10048000460161E082E00E94C2006AEF70E080E015
:1004900090E00E944601EBCFC5E061E081E00E9460
:1004A000C20060E082E00E94C20068EC70E080E080
:1004B00090E00E94460160E081E00E94C20061E09D
:1004C00082E00E94C20068EC70E080E090E00E9450
:1004D0004601C15011F70E947801C0E0D0E00E94AF
:1004E0009E00892B29F080910F018F5F80930F016F
:1004F0000E949E00892B21F40E94780110920F0126
:1005000080910F01882309F469C080910A019091BC
:100510000B01A0910C01B0910D018C599F4FAF4F71
:10052000BF4F2FB7F894409105015091060160919B
:100530000701709108012FBF481759076A077B0709
:1005400020F110910901111155C060E081E00E9475
:10055000C20061E082E00E94C20081E0111180E0EF
:10056000809309012FB7F8948091050190910601BD
:10057000A0910701B09108012FBF80930A019093C9
:100580000B01A0930C01B0930D0180910F018932F2
:1005900028F181E090910E01911180E080930E018D
:1005A0000E94780161E084E00E94C20060E083E084
:1005B0000E94C2000E949E00892BE1F768EE73E062
:1005C00080E090E00E94460110920F0160E084E01C
:1005D0000E94C20061E083E00E94C20062E370E01A
:1005E00080E090E00E944601209709F478CF0E94B5
:1005F000000075CF61E081E00E94C20060E0AACFF8
:04060000F894FFCF9C
:00000001FF
